:100000000C9464000C948C000C948C000C948C0068
:100010000C948C000C948C000C948C000C94C404F4
:100020000C948C000C948C000C948C000C948C0020
:100030000C948C000C948C000C948C000C948C0010
:100040000C9422040C948C000C9492040C946C0478
:100050000C948C000C948C000C948C000C948C00F0
:100060000C948C000C948C000000000024002700ED
:100070002A000000000023002600290000000008DC
:10008000000201000003040700000000000000005F
:10009000020102040810204080010204081020011F
:1000A000020408102000000000250028002B000496
:1000B000040404040404040202020202020303030F
:1000C000030303004605710911241FBECFEFD8E0DA
:1000D000DEBFCDBF11E0A0E0B1E0EAE0F7E102C091
:1000E00005900D92A233B107D9F723E0A2E3B1E066
:1000F00001C01D92AC30B207E1F710E0C3E6D0E0DA
:1001000004C02197FE010E94400AC236D107C9F7F8
:100110000E94EC050C94780B0C9400008F929F9237
:10012000AF92BF92CF92DF92EF92FF924B01AA243F
:10013000BB24E82DC52ED62EE72EFF24FC2D342F10
:100140002091FA02222361F0829E40011124E92DC0
:10015000C29E60011124FD2D429FD00111243B2F2E
:10016000F0900003E090FD02A091FB02B091FC0230
:10017000FE1008C0AC01440F551F840F951F8A0F55
:100180009B1F14C0880F991F880F991F8A0F9B1FF0
:10019000472F552766277727DC01AF0DB11D222396
:1001A00021F0429FA0011124452F4C932091FD0284
:1001B000DC01A20FB11DEC932091FE02DC01A20F25
:1001C000B11DFC932091FF02FC01E20FF11D308371
:1001D000FF90EF90DF90CF90BF90AF909F908F9067
:1001E0000895833081F028F4813099F08230A1F0B5
:1001F00008958730A9F08830B9F08430D1F4809127
:1002000080008F7D03C0809180008F778093800075
:10021000089584B58F7702C084B58F7D84BD08951D
:100220008091B0008F7703C08091B0008F7D809364
:10023000B0000895CF93DF93282F30E0F901E45800
:10024000FF4F8491F901EF56FF4FD491F901E15529
:10025000FF4FC491CC2391F081110E94F100EC2F4B
:10026000F0E0EE0FFF1FEE58FF4FA591B491EC9117
:10027000ED2381E090E021F480E002C080E090E096
:10028000DF91CF9108951F93CF93DF93282F30E014
:10029000F901E458FF4F8491F901EF56FF4FD491D3
:1002A000F901E155FF4FC491CC23C9F0162F8111FC
:1002B0000E94F100EC2FF0E0EE0FFF1FEB55FF4F17
:1002C000A591B4918FB7F894111105C09C91ED2FB1
:1002D000E095E92302C0EC91ED2BEC938FBFDF9109
:1002E000CF911F910895CF93DF9390E0FC01EF56DB
:1002F000FF4F2491FC01E155FF4F8491882361F168
:1003000090E0880F991FFC01E859FF4FC591D491E7
:10031000FC01EB55FF4FA591B491611109C09FB746
:10032000F8948881209582238883EC912E230BC03A
:10033000623061F49FB7F8943881822F80958323CF
:100340008883EC912E2B2C939FBF06C08FB7F89417
:10035000E8812E2B28838FBFDF91CF910895CF9313
:1003600080910C01883021F08F3F09F0DAC004C081
:10037000E0E9F0E0C49174C088E080930C01E0E90A
:10038000F0E0E491EF3F09F4CCC0E13011F1E2304C
:1003900009F442C0E11163C014BC15BC84B582608D
:1003A00084BD85B5816085BDE7EBF0E0E491F0E0C8
:1003B000EE0FFF1FEB55FF4F8591949190934902EB
:1003C00080934802E9E9F0E0E491E0934702C0E05D
:1003D00049C0109280001092810080918100886055
:1003E0008093810080918100816080938100E7EBA0
:1003F000F0E0E491F0E0EE0FFF1FEB55FF4F859129
:1004000094919093460280934502E9E9F0E0E491EB
:10041000E0934402C1E026C01092B0001092B100F7
:100420008091B00082608093B0008091B1008160C3
:100430008093B100E7EBF0E0E491F0E0EE0FFF1FF6
:10044000EB55FF4F85919491909343028093420224
:10045000E9E9F0E0E491E0934102C2E003C0CE2F6D
:10046000C7FD5FC061E088E00E947301CC2309F4FE
:1004700041C0C230B9F1C130F1F480918100887F70
:1004800081608093810085E497E790938900809351
:1004900088008AE190E0A0E0B0E080934E02909363
:1004A0004F02A0935002B093510280916F0082607E
:1004B00080936F0036C0C230A1F585E48093B3000D
:1004C0008AE190E0A0E0B0E080934A0290934B0272
:1004D000A0934C02B0934D02809170008260809393
:1004E00070001FC08091B100887F85608093B1004B
:1004F0008DEEE4CF85B5887F846085BD86E787BDB6
:100500008AE190E0A0E0B0E0809352029093530221
:10051000A0935402B093550280916E008260809344
:100520006E00CF9108953FB7F89480913D0290916D
:100530003E02A0913F02B091400226B5A89B05C0A3
:100540002F3F19F00196A11DB11D3FBFBA2FA92F52
:10055000982F8827820F911DA11DB11DBC01CD01CF
:1005600042E0660F771F881F991F4A95D1F70895BB
:100570002FB7F8946091390270913A0280913B0252
:1005800090913C022FBF0895FC01538D448D252F7F
:1005900030E0842F90E0821B930B541710F0CF961D
:1005A000089501970895FC01918D828D981761F04F
:1005B000828DDF01A80FB11D5D968C91928D9F5F9A
:1005C0009F73928F90E008958FEF9FEF0895FC0145
:1005D000918D828D981731F0828DE80FF11D858DF8
:1005E00090E008958FEF9FEF0895FC01918D228D8B
:1005F000892F90E0805C9F4F821B91098F73992710
:10060000089586E592E00E94F50221E0892B09F425
:1006100020E0822F0895FC01848DDF01A80FB11D19
:10062000A35ABF4F2C91848D90E001968F73992728
:10063000848FA689B7892C93A089B1898C91806415
:100640008C93938D848D981306C00288F389E02DD6
:1006500080818F7D80830895EF92FF920F931F9387
:10066000CF93DF93EC0181E0888F9B8D8C8D981365
:1006700005C0E889F989808185FD24C0F62E0B8D9F
:1006800010E00F5F1F4F0F731127E02E8C8DE812C3
:100690000CC00FB607FCFACFE889F989808185FF85
:1006A000F5CFCE010E940B03F1CF8B8DFE01E80F39
:1006B000F11DE35AFF4FF0820B8FEA89FB8980819D
:1006C000806207C0EE89FF896083E889F9898081AB
:1006D0008064808381E090E0DF91CF911F910F9142
:1006E000FF90EF900895CF93DF93EC01888D8823DE
:1006F000C9F0EA89FB89808185FD05C0A889B9898F
:100700008C9186FD0FC00FB607FCF5CF808185FF69
:10071000F2CFA889B9898C9185FFEDCFCE010E94D7
:100720000B03E7CFDF91CF91089580E090E0892B14
:1007300029F00E94010381110C9400000895CF92CA
:10074000DF92EF92FF920F931F93CF93DF936C0191
:100750007A018B01C0E0D0E0CE15DF0589F0D80129
:100760006D918D01D601ED91FC910190F081E02D0C
:10077000C6010995892B11F47E0102C02196ECCFA8
:10078000C701DF91CF911F910F91FF90EF90DF9004
:10079000CF900895089580E090E008952BE030E038
:1007A000261B31099BE0299F902D112460FF02C078
:1007B0008B5001C08095890F0895CF93DF9390915E
:1007C000080190FD35C08AE0682F691B90910201F5
:1007D000891B0E94CE03E82FF0E0EE0FFF1FEE5CB6
:1007E000FE4F80819181019741F50E94CF0927EC4E
:1007F00030E040E050E00E94DD09DC01CB010196D1
:10080000A11DB11D9093010180930001C0910401CD
:10081000D09105012497D0930501C09304010E9453
:10082000AF01D7FF0AC0109205011092040105C064
:100830006AE0691B80910201CCCFDF91CF910895CE
:100840000E94730B1F920F920FB60F9211242F93D9
:100850003F938F939F93AF93BF9380913902909171
:100860003A02A0913B02B0913C023091380223E061
:10087000230F2D3720F40196A11DB11D05C026E8D8
:10088000230F0296A11DB11D2093380280933902D7
:1008900090933A02A0933B02B0933C0280913D02B8
:1008A00090913E02A0913F02B09140020196A11D9D
:1008B000B11D80933D0290933E02A0933F02B093FE
:1008C0004002BF91AF919F918F913F912F910F90D7
:1008D0000FBE0F901F9018951F920F920FB60F9298
:1008E00011242F933F934F935F936F937F938F9335
:1008F0009F93AF93BF93EF93FF9386E592E00E949F
:100900000B03FF91EF91BF91AF919F918F917F91D9
:100910006F915F914F913F912F910F900FBE0F906C
:100920001F9018951F920F920FB60F9211242F93BC
:100930008F939F93EF93FF93E0916602F09167028C
:100940008081E0916C02F0916D0282FD12C0908175
:1009500080916F028F5F8F7320917002821751F028
:10096000E0916F02F0E0EA5AFD4F958F80936F029D
:1009700001C08081FF91EF919F918F912F910F90F6
:100980000FBE0F901F9018951F920F920FB60F92E7
:1009900011242F933F934F935F936F937F938F9384
:1009A0009F93AF93BF93EF93FF9380914A029091EF
:1009B0004B02A0914C02B0914D02892B8A2B8B2BBC
:1009C00059F180914102E0914202F09143029081FD
:1009D0008927808380914A0290914B02A0914C021A
:1009E000B0914D02181619061A061B060CF03DC0F0
:1009F00080914A0290914B02A0914C02B0914D021D
:100A00000197A109B10980934A0290934B02A093E8
:100A10004C02B0934D0229C080910C01E0E9F0E056
:100A2000E4919FEF90930C01E130B9F098F0E2303F
:100A3000C9F4909170009D7F9093700091E0909325
:100A4000B0009091B100987F94609093B1001092A3
:100A5000B30008C010926E0005C090916F009D7F9A
:100A600090936F0060E00E944301FF91EF91BF916E
:100A7000AF919F918F917F916F915F914F913F9136
:100A80002F910F900FBE0F901F901895CF93DF936B
:100A9000109259021092580288EE93E0A0E0B0E064
:100AA00080935A0290935B02A0935C02B0935D0224
:100AB0008BE191E0909357028093560285EC90E091
:100AC000909363028093620284EC90E090936502BD
:100AD0008093640280EC90E09093670280936602BA
:100AE00081EC90E0909369028093680282EC90E040
:100AF00090936B0280936A0286EC90E090936D0273
:100B000080936C0210926F02109270021092710228
:100B1000109272021092F4021092FA0210920103E3
:100B200010920203109203031092040381E0809359
:100B300000038093FD021092FE0292E09093FF0268
:100B40008093F302CBE6D1E0D093F802C093F70292
:100B50008BE691E00E94460A9093FC028093FB0290
:100B6000009769F0FC019E01119221503040E1F79D
:100B700089E790E09093F6028093F50208C0109206
:100B8000F8021092F7021092F6021092F50282E03B
:100B90008093F9028091F402882341F061E082E0C1
:100BA0000E94730160E082E00E944301E1EBF0E00B
:100BB000E491F0E0EE0FFF1FEB55FF4F859194910C
:100BC0009093060380930503E3E9F0E0E491E0935A
:100BD0000703DF91CF910895CF93DF93CDB7DEB7B1
:100BE00029970FB6F894DEBF0FBECDBF789484B5B9
:100BF000826084BD84B5816084BD85B5826085BD19
:100C000085B5816085BD80916E00816080936E00A6
:100C10001092810080918100826080938100809198
:100C20008100816080938100809180008160809349
:100C300080008091B10084608093B1008091B00009
:100C400081608093B00080917A00846080937A0004
:100C500080917A00826080937A0080917A0081602E
:100C600080937A0080917A00806880937A00109255
:100C7000C100E0916602F091670282E08083E0911A
:100C80006202F09163021082E0916402F0916502C9
:100C90008FEC808310926E02E0916A02F0916B02F9
:100CA00086E08083E0916802F09169028081806132
:100CB0008083E0916802F09169028081886080837E
:100CC000E0916802F0916902808180688083E09100
:100CD0006802F091690280818F7D808380E4809337
:100CE0007C0080917A00806480937A0080917A0001
:100CF00086FDFCCF609178008091790070E0782BC0
:100D0000072E000C880B990B611571058105910563
:100D100011F00E94D40962E08DE00E94730162E04C
:100D20008CE00E94730162E08BE00E94730162E03C
:100D30008AE00E94730162E089E00E94730161E031
:100D400087E00E94730161E086E00E94730162E027
:100D500085E00E94730162E084E00E94730161E01B
:100D600087E00E94430180910A0190910B01029754
:100D700021F461E086E00E9443018091F90287FD41
:100D800008C061E00E94730160E08091F9020E9456
:100D9000430181E08093F402F2E3EF2EF1E0FF2EB5
:100DA00000E010E0F701119211927F018091F502AD
:100DB0009091F6020817190730F440E050E0BA01AC
:100DC000C8010E948E000F5F1F4F0937110551F7B0
:100DD000EE24E394F12C64E6362E7AE0C72ED12C73
:100DE000EFE04E2E512C612C712C22242394809103
:100DF000360290913702892B49F48DE00E941A0146
:100E0000892B21F4F0923702E0923602809136026B
:100E100090913702019709F03AC18DE00E941A01C2
:100E2000892B81F445E050E069E271E086E592E0CB
:100E30000E949F0342E050E06FE271E086E592E09D
:100E40000E949F030E94B80200912802109129027B
:100E500020912A0230912B02025E1F4F2F4F3F4FED
:100E6000061717072807390708F082C08CE00E9490
:100E70001A018C018BE00E941A0141E050E0012B25
:100E800011F040E050E021E030E0892B11F020E04B
:100E900030E04A01821A930A8AE00E941A018C010A
:100EA00089E00E941A019C0181E090E0012B11F081
:100EB00080E090E041E050E0232B11F040E050E072
:100EC000841B950B8114910411F40097B9F12091C2
:100ED000020130910301820E931E909203018092D1
:100EE00002012091080130910901820F931F909314
:100EF00009018093080197FE0BC010920301109224
:100F0000020197FF11C0109209011092080102C05E
:100F100097FDF9CF80910201909103010B9724F086
:100F2000D0920301C09202018091080190910901C1
:100F30000B9724F0D0920901C0920801209108017A
:100F4000309109014AE0429FC001439F900D112456
:100F500090930701809306010E94DD030E94B8026E
:100F6000609328027093290280932A0290932B02A7
:100F70000E94B80220910601309107014901330F08
:100F8000AA08BB0800912402109125022091260294
:100F900030912702080D191D2A1D3B1D0617170742
:100FA0002807390758F5E2E1F2E092918291978B98
:100FB000868B21E0E233F207C1F702E311E00E94E1
:100FC000CF09A30192010E94DD09DC01CB0101964A
:100FD000A11DB11DF801819391938F01F1E00834B7
:100FE0001F0769F70E94DD030E94B8026093240284
:100FF00070932502809326029093270202E311E06A
:10100000812C912CF801819191918F01019721F40C
:101010004AE0A42EB12C02C0A12CB12C682D892D40
:101020000E94CE0390E02091F5023091F6028217E3
:10103000930730F4A501BB0C660B770B0E948E0062
:101040009394FBE09F1202C08394912C22E004321F
:101050001207C1F61091040160910801809102010C
:101060000E94CE0390E02091F5023091F6028217A3
:10107000930768F4232D211B412F50E060E070E0BE
:10108000762F652F542F4427622B0E948E0085E017
:101090000E941A01892B69F40E94B80260932D0204
:1010A00070932E0280932F029093300210922C02A4
:1010B0001BC080912C02811117C080912D0290914C
:1010C0002E02A0912F02B09130024C015D01EAE0A6
:1010D0008E0E911CA11CB11C0E94B80286169706A8
:1010E000A806B90608F4DCC084E00E941A01892B26
:1010F00069F40E94B80260933202709333028093C5
:10110000340290933502109231021EC08091310258
:1011100081111AC08091320290913302A091340261
:10112000B09135024C015D01FAE08F0E911CA11CBB
:10113000B11C0E94B80286169706A806B90620F4CC
:101140000E94AF01209231028091FB029091FC023B
:10115000892B09F4A2C00E9493020091010310910F
:1011600002032091030330910403DC01CB01801BB7
:10117000910BA20BB30B8C329140A105B10558F332
:10118000F8948091F7029091F8029A838983E09114
:10119000FB02F091FC02DF0111968081898790911A
:1011A000F302E0910503F091060380910703992370
:1011B00009F42EC09081982B98879081809589237F
:1011C0008F838F818C8388E08B8358856F814985DD
:1011D0003B812C8189819A81508347FD252F3A9547
:1011E0002083262F39F0441F00C0000060830000D8
:1011F00000C0F2CF38E04D9160830000019761F7A5
:10120000F0930603E093050349873B832C8338C0A2
:101210009081982B98879081809589238F838F81E7
:101220008E8388E08D8358856F8149853D812E812D
:1012300089819A81508347FD252F00C000C02083FB
:1012400000C000C000C000C000C060830000262FA6
:101250003A9541F0441F000000C000C000C000C02B
:1012600000C0E8CF38E04D9100C0608300C0019716
:1012700009F7F0930603E093050349873D832E8326
:101280009A83898378940E949302609301037093F8
:10129000020380930303909304030E949503A7CD58
:1012A00080910A0190910B01019761F482E090E036
:1012B00090930B0180930A0161E087E00E94430153
:1012C00061E009C0F0920B01E0920A0161E087E061
:1012D0000E94430160E086E00E94430120922C02BC
:1012E00003CF8091FB029091FC02009711F00E94C5
:1012F000DB0A8091F90287FD03C060E00C94730162
:1013000008958F929F92AF92BF92CF92DF92EF9209
:10131000FF92CF93DF93EC01688179818A819B8171
:10132000611571058105910521F464E279ED8BE584
:1013300097E02DE133EF41E050E00E94DD094901E3
:101340005A019B01AC01A7EAB1E40E94FC096B01C0
:101350007C01ACEEB4EFA50194010E940A0ADC0105
:10136000CB018C0D9D1DAE1DBF1DB7FF03C00197A6
:10137000A109B04888839983AA83BB83BC01CD01AE
:101380009F77DF91CF91FF90EF90DF90CF90BF904C
:10139000AF909F908F9008950E94810908958DE0ED
:1013A00091E00E948109089560930D0170930E01F0
:1013B00080930F01909310010895052E97FB1EF462
:1013C00000940E94F40957FD07D00E940F0A07FC01
:1013D00003D04EF40C94F409509540953095219526
:1013E0003F4F4F4F5F4F0895909580957095619551
:1013F0007F4F8F4F9F4F08950E94310AA59F900DF8
:10140000B49F900DA49F800D911D11240895B7FFE6
:101410000C94FC090E94FC09821B930B0895A1E225
:101420001A2EAA1BBB1BFD010DC0AA1FBB1FEE1F5E
:10143000FF1FA217B307E407F50720F0A21BB30BA9
:10144000E40BF50B661F771F881F991F1A9469F725
:1014500060957095809590959B01AC01BD01CF0181
:101460000895A29FB001B39FC001A39F700D811D7D
:101470001124911DB29F700D811D1124911D08959D
:10148000EE0FFF1F0590F491E02D0994CF93DF93A9
:101490008230910510F482E090E0E0910A03F0912F
:1014A0000B0320E030E0C0E0D0E0309711F1408144
:1014B000518148175907C0F04817590761F48281D4
:1014C0009381209719F09B838A832BC090930B0301
:1014D00080930A0326C02115310519F042175307DE
:1014E00018F49A01BE01DF01EF010280F381E02DC3
:1014F000DCCF2115310509F1281B390B24303105CA
:1015000090F412968D919C9113976115710521F0BD
:10151000FB019383828304C090930B0380930A039F
:10152000FD01329644C0FD01E20FF31F81939193B8
:10153000225031092D933C933AC0209108033091F9
:101540000903232B41F420911301309114013093AE
:1015500009032093080320911101309112012115F4
:10156000310541F42DB73EB7409115015091160158
:10157000241B350BE0910803F0910903E217F307F0
:10158000A0F42E1B3F0B2817390778F0AC014E5FF3
:101590005F4F2417350748F04E0F5F1F5093090324
:1015A000409308038193919302C0E0E0F0E0CF0103
:1015B000DF91CF9108950F931F93CF93DF930097FF
:1015C00009F48CC0FC0132971382128200910A0345
:1015D00010910B030115110581F420813181820FD7
:1015E000931F20910803309109032817390779F5D3
:1015F000F0930903E093080371C0D80140E050E084
:10160000AE17BF0750F412962D913C911397AD0180
:101610002115310509F1D901F3CF9D01DA01338399
:10162000228360817181860F971F8217930769F467
:10163000EC0128813981260F371F2E5F3F4F318300
:1016400020838A819B8193838283452B29F4F093A5
:101650000B03E0930A0342C01396FC93EE93129798
:10166000ED01499159919E01240F351FE217F307AF
:1016700071F480819181840F951F029611969C933D
:101680008E938281938113969C938E931297E0E0C0
:10169000F0E0D80112968D919C911397009719F064
:1016A000F8018C01F6CF8D919C9198012E5F3F4FF0
:1016B000820F931F209108033091090328173907DF
:1016C00069F4309729F410920B0310920A0302C0B8
:1016D000138212821093090300930803DF91CF91C4
:1016E0001F910F91089581E090E0F8940C94780B8D
:1016F00010E0C3E6D0E004C0FE010E94400A21963B
:0A170000C436D107C9F7F894FFCFF3
:10170A00640005006400C80009000100FF01000030
:10171A000000000C038000000000002C039F03C49B
:10172A00027303F502D302E7026669726521000DAE
:02173A000A00A3
:00000001FF
