:100000000C9464000C948C000C948C000C948C0068
:100010000C948C000C948C000C948C000C940103B8
:100020000C948C000C948C000C948C000C948C0020
:100030000C948C000C948C000C948C000C948C0010
:100040000C943A070C948C000C94CF020C94A902E7
:100050000C948C000C948C000C948C000C948C00F0
:100060000C948C000C948C000000000024002700ED
:100070002A000000000023002600290000000008DC
:10008000000201000003040700000000000000005F
:10009000020102040810204080010204081020011F
:1000A000020408102000000000250028002B000496
:1000B000040404040404040202020202020303030F
:1000C00003030300930C830C11241FBECFEFD8E071
:1000D000DEBFCDBF11E0A0E0B1E0ECE9F0E202C08C
:1000E00005900D92A633B107D9F723E0A6E3B1E05E
:1000F00001C01D92A531B207E1F710E0C3E6D0E0E0
:1001000004C02197FE010E942F0EC236D107C9F705
:100110000E9484070C9441100C940000089580E024
:1001200090E00895FC01538D448D252F30E0842FFD
:1001300090E0821B930B541710F0CF96089501970F
:100140000895FC01918D828D981761F0828DDF01F9
:10015000A80FB11D5D968C91928D9F5F9F73928FBA
:1001600090E008958FEF9FEF0895FC01918D828DAF
:10017000981731F0828DE80FF11D858D90E008957C
:100180008FEF9FEF0895FC01918D228D892F90E0D4
:10019000805C9F4F821B91098F739927089588E493
:1001A00092E00E94C30021E0892B09F420E0822F15
:1001B0000895FC01848DDF01A80FB11DA35ABF4F24
:1001C0002C91848D90E001968F739927848FA68956
:1001D000B7892C93A089B1898C9180648C93938D7D
:1001E000848D981306C00288F389E02D80818F7D6D
:1001F00080830895EF92FF920F931F93CF93DF9325
:10020000EC0181E0888F9B8D8C8D981305C0E88967
:10021000F989808185FD24C0F62E0B8D10E00F5FDB
:100220001F4F0F731127E02E8C8DE8120CC00FB6F4
:1002300007FCFACFE889F989808185FFF5CFCE01E7
:100240000E94D900F1CF8B8DFE01E80FF11DE35A1A
:10025000FF4FF0820B8FEA89FB898081806207C0A3
:10026000EE89FF896083E889F989808180648083D1
:1002700081E090E0DF91CF911F910F91FF90EF907F
:100280000895CF93DF93EC01888D8823C9F0EA8924
:10029000FB89808185FD05C0A889B9898C9186FD7F
:1002A0000FC00FB607FCF5CF808185FFF2CFA8897C
:1002B000B9898C9185FFEDCFCE010E94D900E7CF9F
:1002C000DF91CF91089580E090E0892B29F00E9482
:1002D000CF0081110C94000008952BE030E0261B24
:1002E00031099BE0299F902D112460FF02C08B50A3
:1002F00001C08095890F08958DE00E944404892BE8
:1003000019F01092360108C080913601811104C0A5
:1003100081E080933601089580E00895CF93DF93C4
:1003200090910C0190FD07C08AE0682F691B9091A5
:100330000601891B04C06AE0691B809106010E94C6
:100340006D01E82FF0E0EE0FFF1FE55CFE4F8081AE
:100350009181019799F4C0910801D09109012497E6
:10036000D0930901C093080186E091E00E94D9046E
:10037000D7FF04C01092090110920801DF91CF91BC
:100380000895CF93DF93C0E0D0E040E050E0BA01A1
:10039000CE010E94D9032196C937D105B1F7DF916B
:1003A000CF910895CF92DF92EF92FF92C32ED12C7E
:1003B000E12CF12CFE2CED2CDC2CCC24E42AC22ADE
:1003C0000E946D01B701A60190E0FF90EF90DF90D1
:1003D000CF900C94D903FC01808191810C94CA0EBA
:1003E000EF92FF920F931F93CF93DF93EC0119824B
:1003F00018821B821A821D821C8261157105A9F167
:100400007B01FB0101900020E9F731978F01061B6A
:10041000170BB8016F5F7F4F80E090E00E94620F82
:10042000009759F0998388831B830A832C813D812F
:10043000232B81F4FC0110820DC0888199810097E3
:1004400011F00E94CA0E198218821D821C821B8222
:100450001A820BC01D830C83B701DF91CF911F91CE
:100460000F91FF90EF900C943A10DF91CF911F9174
:100470000F91FF90EF9008954F925F926F927F924D
:10048000BF92CF92DF92EF92FF920F931F93CF9381
:10049000DF9300D000D000D0CDB7DEB7B82EF62E57
:1004A0006A012801390163E371E0CE0101960E94DF
:1004B000F0011F2DE12FEF19F0E0D60114968D9178
:1004C0009C9115978E179F0760F1E817F90728F49C
:1004D000D6018D919C91009729F410923701E7E3A2
:1004E000F1E002C0E80FF91F90812D813E81232B9E
:1004F00021F0E981FA81309721F410923701E7E386
:10050000F1E0808198130BC0A3019201E11003C0B8
:100510006B2D812F02C0612F8B2D0E94D2011F5F96
:10052000C9CFCE0101960E94EB0126960FB6F89432
:10053000DEBF0FBECDBFDF91CF911F910F91FF9016
:10054000EF90DF90CF90BF907F906F905F904F9033
:1005500008951F920F920FB60F9211242F933F937D
:100560004F935F936F937F938F939F93AF93BF93BB
:10057000EF93FF9388E492E00E94D900FF91EF91FE
:10058000BF91AF919F918F917F916F915F914F91AB
:100590003F912F910F900FBE0F901F9018951F92B3
:1005A0000F920FB60F9211242F938F939F93EF9377
:1005B000FF93E0915802F09159028081E0915E0230
:1005C000F0915F0282FD12C09081809161028F5F85
:1005D0008F7320916202821751F0E0916102F0E086
:1005E000E85BFD4F958F8093610201C08081FF9190
:1005F000EF919F918F912F910F900FBE0F901F90B1
:1006000018951F920F920FB60F9211242F933F93BC
:100610004F935F936F937F938F939F93AF93BF930A
:10062000EF93FF938091440290914502A09146027E
:10063000B0914702892B8A2B8B2B59F18091410273
:10064000E0914202F091430290818927808380915A
:10065000440290914502A0914602B09147021816BB
:1006600019061A061B060CF03DC0809144029091B9
:100670004502A0914602B09147020197A109B10934
:100680008093440290934502A0934602B0934702A0
:1006900029C080911001E0E9F0E0E4919FEF909390
:1006A0001001E130B9F098F0E230C9F49091700097
:1006B0009D7F9093700091E09093B0009091B10075
:1006C000987F94609093B1001092B30008C010928C
:1006D0006E0005C090916F009D7F90936F0060E069
:1006E0000E946D04FF91EF91BF91AF919F918F9107
:1006F0007F916F915F914F913F912F910F900FBE1E
:100700000F901F901895CF92DF92EF92FF920F9368
:100710001F93CF93DF936C017A018B01C0E0D0E08F
:10072000CE15DF0589F0D8016D918D01D601ED91CF
:10073000FC910190F081E02DC6010995892B11F4FF
:100740007E0102C02196ECCFC701DF91CF911F91AE
:100750000F91FF90EF90DF90CF900895833081F05C
:1007600028F4813099F08230A1F008958730A9F003
:100770008830B9F08430D1F4809180008F7D03C03F
:10078000809180008F7780938000089584B58F7763
:1007900002C084B58F7D84BD08958091B0008F77AD
:1007A00003C08091B0008F7D8093B00008950E94B7
:1007B0002C108F929F92AF92BF92CF92DF92EF92C6
:1007C000FF922091E7023091E8028217930708F028
:1007D00052C04B01AA24BB24E82DC52ED62EE72EED
:1007E000FF24FC2D342F2091EC02222361F0829E05
:1007F00040011124E92DC29E60011124FD2D429F6C
:10080000D00111243B2FF090F202E090EF02A09172
:10081000ED02B091EE02FE1008C0AC01440F551F6E
:10082000840F951F8A0F9B1F14C0880F991F880F74
:10083000991F8A0F9B1F472F552766277727DC01B3
:10084000AF0DB11D222321F0429FA0011124452F9D
:100850004C932091EF02DC01A20FB11DEC9320918B
:10086000F002DC01A20FB11DFC932091F102FC010A
:10087000E20FF11D3083FF90EF90DF90CF90BF909B
:10088000AF909F908F900895CF93DF93282F30E003
:10089000F901E458FF4F8491F901EF56FF4FD491CD
:1008A000F901E155FF4FC491CC2391F081110E94D1
:1008B000AE03EC2FF0E0EE0FFF1FEE58FF4FA591B7
:1008C000B491EC91ED2381E090E021F480E002C04E
:1008D00080E090E0DF91CF9108951F93CF93DF9355
:1008E000282F30E0F901E458FF4F8491F901EF56C9
:1008F000FF4FD491F901E155FF4FC491CC23C9F0CA
:10090000162F81110E94AE03EC2FF0E0EE0FFF1FB7
:10091000EB55FF4FA591B4918FB7F894111105C015
:100920009C91ED2FE095E92302C0EC91ED2BEC9327
:100930008FBFDF91CF911F910895CF93DF9390E008
:10094000FC01EF56FF4F2491FC01E155FF4F8491CC
:10095000882361F190E0880F991FFC01E859FF4F4F
:10096000C591D491FC01EB55FF4FA591B491611154
:1009700009C09FB7F8948881209582238883EC91E1
:100980002E230BC0623061F49FB7F8943881822F18
:10099000809583238883EC912E2B2C939FBF06C0D8
:1009A0008FB7F894E8812E2B28838FBFDF91CF91EA
:1009B00008954F925F926F927F928F929F92AF9223
:1009C000BF92CF92DF92EF92FF921F93CF93DF936C
:1009D00020911001283021F02F3F09F00AC204C0F5
:1009E000E0E9F0E0149172C028E020931001E0E902
:1009F000F0E014911F3F09F4FCC1113009F11230ED
:100A000009F441C0111162C014BC15BC24B52260A8
:100A100024BD25B5216025BDE7EBF0E0E491F0E0D1
:100A2000EE0FFF1FEB55FF4F2591349130930803D4
:100A300020930703E9E9F0E0E491E093060348C05E
:100A400010928000109281002091810028602093F4
:100A5000810020918100216020938100E7EBF0E08C
:100A6000E491F0E0EE0FFF1FEB55FF4F259134911D
:100A70003093050320930403E9E9F0E0E491E09367
:100A8000030311E025C01092B0001092B100209134
:100A9000B00022602093B0002091B100216020932B
:100AA000B100E7EBF0E0E491F0E0EE0FFF1FEB5553
:100AB000FF4F259134913093430220934202E9E99C
:100AC000F0E0E491E093410212E002C017FD91C111
:100AD000EC0161E088E00E949D044E01A12CB12C44
:100AE000812F8D7F09F0B6C060E072E18AE790E067
:100AF000A50194010E94950D29013A0169017A012D
:100B000021E0C21AD108E108F1088FEFC816D1041C
:100B1000E104F10409F008F44BC060E472E48FE0F2
:100B200090E0A50194010E94950D69017A0181E090
:100B3000C81AD108E108F108123001F52FEFC216EA
:100B4000D104E104F10409F008F451C160E970ED49
:100B500083E090E0A50194010E94950D69017A015E
:100B600081E0C81AD108E108F1082FEFC216D104BC
:100B7000E104F10409F0C0F593E065C08FEFC816F9
:100B8000D104E104F104B1F0A8F068E478EE81E06A
:100B900090E0A50194010E94950D69017A0181E020
:100BA000C81AD108E108F108112309F4C8C016C118
:100BB00091E001C092E0112391F045C0D301C20140
:100BC0002AE0B595A795979587952A95D1F76C0159
:100BD0007D0121E0C21AD108E108F10895E085B550
:100BE000887F982B95BD65C068E478EE81E090E041
:100BF000A50194010E94950D69017A0181E0C81A4E
:100C0000D108E108F1082FEFC216D104E104F10484
:100C100009F008F492C064E274EF80E090E0A5016E
:100C200094010E94950D69017A0181E0C81AD108EA
:100C3000E108F1082FEFC216D104E104F10411F02C
:100C400008F09FC095E08091B100887F982B909329
:100C5000B1002FC060E072E18AE790E0A501940145
:100C60000E94950D69017A0181E0C81AD108E10856
:100C7000F108C114D10421E0E206F10488F068E42F
:100C800078EE81E090E0A50194010E94950D690144
:100C90007A0181E0C81AD108E108F10893E001C0A7
:100CA00091E0113031F480918100887F892B80930D
:100CB00081009E01220F331FA2E3B0E00E94200EAC
:100CC00028EE33E040E050E00E94FE0D113099F034
:100CD000123019F111118DC0C7BC20930D03309350
:100CE0000E0340930F035093100380916E008260B7
:100CF00080936E007EC0D0928900C09288002093BD
:100D0000090330930A0340930B0350930C03809123
:100D10006F00826080936F006CC0C092B30020931C
:100D2000440230934502409346025093470280911B
:100D300070008260809370005CC094E084CF8FEF7D
:100D4000C816D104E104F104D1F0C8F062E17AE7F9
:100D500080E090E0A50194010E94950D69017A015F
:100D600081E0C81AD108E108F1082FEFC216D104BA
:100D7000E104F10411F008F021CF94E030CF93E0CA
:100D80002ECF62E17AE780E090E0A50194010E9415
:100D9000950D69017A0181E0C81AD108E108F108CE
:100DA0002FEFC216D104E104F104B1F0A8F0D30191
:100DB000C2015AE0B595A795979587955A95D1F7B1
:100DC0006C017D0121E0C21AD108E108F10811236C
:100DD00009F404CF97E037CF96E0EDCE8FEFC81639
:100DE000D104E104F10409F060F694E0E4CE92E06D
:100DF0002ACFDF91CF911F91FF90EF90DF90CF909E
:100E0000BF90AF909F908F907F906F905F904F902A
:100E100008953FB7F8948091FF0290910003A0914C
:100E20000103B091020326B5A89B05C02F3F19F01E
:100E30000196A11DB11D3FBFBA2FA92F982F88275A
:100E4000820F911DA11DB11DBC01CD0142E0660FB5
:100E5000771F881F991F4A95D1F708952FB7F894E7
:100E60006091FB027091FC028091FD029091FE0264
:100E70002FBF08951F920F920FB60F9211242F9338
:100E80003F938F939F93AF93BF938091FB02909179
:100E9000FC02A091FD02B091FE023091FA0223E023
:100EA000230F2D3720F40196A11DB11D05C026E8A2
:100EB000230F0296A11DB11D2093FA028093FB021D
:100EC0009093FC02A093FD02B093FE028091FF027A
:100ED00090910003A0910103B09102030196A11D1E
:100EE000B11D8093FF0290930003A0930103B09380
:100EF0000203BF91AF919F918F913F912F910F90DE
:100F00000FBE0F901F901895CF93DF93CDB7DEB72C
:100F10002F970FB6F894DEBF0FBECDBF789484B57F
:100F2000826084BD84B5816084BD85B5826085BDE5
:100F300085B5816085BD80916E00816080936E0073
:100F40001092810080918100826080938100809165
:100F50008100816080938100809180008160809316
:100F600080008091B10084608093B1008091B000D6
:100F700081608093B00080917A00846080937A00D1
:100F800080917A00826080937A0080917A008160FB
:100F900080937A0080917A00806880937A00109222
:100FA000C100E0915802F091590282E08083E09103
:100FB0005402F09155021082E0915602F0915702CE
:100FC0008FEC808310926002E0915C02F0915D02F0
:100FD00086E08083E0915A02F0915B02808180611B
:100FE0008083E0915A02F0915B0280818860808367
:100FF000E0915A02F0915B02808180688083E091E9
:101000005A02F0915B0280818F7D808380E480931F
:101010007C0080917A00806480937A0080917A00CD
:1010200086FDFCCF609178008091790070E0782B8C
:10103000072E000C880B990B611571058105910530
:1010400011F00E948C0D62E08DE00E949D0462E030
:101050008CE00E949D0462E08BE00E949D0462E0AF
:101060008AE00E949D0462E089E00E949D0461E0A4
:1010700087E00E949D0461E086E00E949D0462E09A
:1010800085E00E949D0462E084E00E949D0461E08E
:1010900087E00E946D0480910E0190910F010297EC
:1010A00021F461E086E00E946D048091EB0287FDEF
:1010B00008C061E00E949D0460E08091EB020E9404
:1010C0006D0481E08093E602BBE3CB2EB1E0DB2E22
:1010D00000E010E0F601119211926F0140E050E043
:1010E000BA01C8010E94D9030F5F1F4F09371105CC
:1010F00089F7CC24C394D12CAFE02A2E312C412C7B
:10110000512C80913F0290914002892B09F079C1C6
:101110000E947C01882331F08AE090E090934002A5
:1011200080933F020E94C101809138019091390162
:101130008130910569F490930501809304019093A7
:10114000030180930201909301018093000134C058
:10115000883C910549F41092050110920401D09247
:101160000301C09202010BC0803F910569F4D09247
:101170000501C09204011092030110920201D09265
:101180000101C092000118C08831E1E09E0769F4B6
:10119000D0920501C0920401D0920301C0920201D5
:1011A000109201011092000107C08034914021F497
:1011B00010923901109238018091380190913901D3
:1011C000019690933901809338016DE271E0CE0170
:1011D00001960E94F0016090040170900501FF24C7
:1011E000F394F60CEE24E39408E210E020E030E003
:1011F000AE014F5F5F4F6F2D80E00E943C02CE0139
:1012000001960E94EB0163E371E0CE0101960E941A
:10121000F00108E210E020E030E0AE014F5F5F4FE8
:101220006F2D81E00E943C02CE0101960E94EB01ED
:101230006DE271E0CE0101960E94F00108E210E03B
:1012400020E030E0AE014F5F5F4F6F2D82E00E94E3
:101250003C02CE0101960E94EB016DE271E0CE01ED
:1012600001960E94F0018090020190900301FF24FA
:10127000F394F80C00E014E124E130E0AE014F5F9C
:101280005F4F6F2D84E00E943C02CE0101960E94C8
:10129000EB016DE271E0CE0101960E94F00100E0E9
:1012A00014E124E130E0AE014F5F5F4F6F2D85E028
:1012B0000E943C02CE0101960E94EB0161E371E0C5
:1012C000CE0101960E94F00100E014E124E130E03B
:1012D000AE014F5F5F4F6F2D86E00E943C02CE0152
:1012E00001960E94EB016DE271E0CE0101960E9431
:1012F000F001A0900001B0900101FF24F394FA0CDA
:1013000000E018E220E030E0AE014F5F5F4F6F2D4C
:1013100088E00E943C02CE0101960E94EB0161E34D
:1013200071E0CE0101960E94F00100E018E220E099
:1013300030E0AE014F5F5F4F6F2D89E00E943C02AD
:10134000CE0101960E94EB016DE271E0CE010196A3
:101350000E94F00100E018E220E030E0AE014F5FB3
:101360005F4F6F2D8AE00E943C02CE0101960E94E1
:10137000EB016728B1F46DE271E0CE0101960E94A5
:10138000F001E12C00E010E028E230E0AE014F5F18
:101390005F4F60E084E00E943C02CE0101960E9413
:1013A000EB018928B1F46DE271E0CE0101960E9453
:1013B000F001E12C00E010E028E230E0AE014F5FE8
:1013C0005F4F64E084E00E943C02CE0101960E94DF
:1013D000EB01AB28B1F46DE271E0CE0101960E9401
:1013E000F001E12C00E010E028E230E0AE014F5FB8
:1013F0005F4F68E084E00E943C02CE0101960E94AB
:10140000EB0180913F02909140020A9779F50E948A
:101410007C01882331F08BE090E090934002809330
:101420003F020E94C101F0903A01F394F0923A0118
:1014300010E000E0112331F01A3021F0002311F008
:101440000A3071F4802F812780FD38C2F7FC08C074
:1014500020E032E340E050E0612F802F0E94D20173
:101460000F5F0B3039F71F5F1B3019F780913F0278
:10147000909140020B9709F019C10E947C018823CA
:1014800021F08BE592E10E94D9040E942E07009181
:101490003102109132022091330230913402025E07
:1014A0001F4F2F4F3F4F061717072807390708F020
:1014B00068C08CE00E9444048C018BE00E944404CC
:1014C00021E030E0012B11F020E030E041E050E07D
:1014D000892B11F040E050E0241B350BA090060151
:1014E000B0900701A20EB31E8AE00E9444048C0152
:1014F00089E00E94440421E030E0012B11F020E05B
:1015000030E041E050E0892B11F040E050E0241B36
:10151000350B80910C0190910D01280F391FC501E9
:101520008B30910514F08AE090E05C0197FF02C0D7
:10153000A12CB12CB0920701A09206012B303105ED
:1015400014F02AE030E037FF02C020E030E03093B2
:101550000D0120930C014AE0429FC001439F900D72
:10156000112490930B0180930A010E948E010E9426
:101570002E0760933102709332028093330290936E
:1015800034020E942E0720910A0130910B0149017B
:10159000330FAA08BB0800912D0210912E02209152
:1015A0002F0230913002080D191D2A1D3B1D061710
:1015B00017072807390758F5EBE1F2E0929182917D
:1015C000978B868B91E0EB33F907C1F70BE311E0C2
:1015D0000E94870DA20191010E94950DDC01CB01B3
:1015E0000196A11DB11DF801819391938F01F1E046
:1015F00001351F0769F70E948E010E942E07609334
:101600002D0270932E0280932F02909330020BE3F1
:1016100011E0B12CF12CF801819191918F0101978A
:1016200029F42AE030E04EE150E004C020E030E050
:1016300040E050E0052E000C660B770B762F652FEF
:10164000542F4427C901330FAA0BBB0B3A014B019E
:10165000682A792A8A2A9B2A6B2D8F2D0E946D0178
:10166000B401A30190E00E94D903F394FBE0FF12C0
:1016700002C0B394F12C22E00D32120761F6809083
:10168000080184E68819912CA12CB12CBA2CA92C24
:10169000982C8824A82A60910C01809106010E9450
:1016A0006D01B501A40190E00E94D90385E00E947C
:1016B0004404892B69F40E942E07609336027093CC
:1016C000370280933802909339021092350219C084
:1016D00080913502811115C08090360290903702BA
:1016E000A0903802B09039028AE0880E911CA11CAB
:1016F000B11C0E942E0786169706A806B90608F4A4
:10170000E0C084E00E944404892B69F40E942E0703
:1017100060933B0270933C0280933D0290933E02A3
:1017200010923A021FC080913A0281111BC0809032
:101730003B0290903C02A0903D02B0903E02FAE045
:101740008F0E911CA11CB11C0E942E0786169706B5
:10175000A806B90638F486E091E00E94D90481E039
:1017600080933A028091ED029091EE02892B09F468
:10177000A2C00E9409070091F3021091F402209187
:10178000F5023091F602DC01CB01801B910BA20B1C
:10179000B30B8C329140A105B10558F3F8948091B8
:1017A000E9029091EA0298878F83A091ED02B091AF
:1017B000EE02FD0131968C918F879091E502A09108
:1017C000F702B091F8028091F902992309F42EC032
:1017D0009C91982B9E879C91809589238D878D85E0
:1017E0008A8788E089874E855D856F8539852A855A
:1017F0008F8198854C9367FD242F3A952C93252F44
:1018000039F0661F00C000005C93000000C0F2CFFA
:1018100038E061915C930000019761F7B093F802A2
:10182000A093F7026F8739872A8738C09C91982B3D
:101830009E879C91809589238D878D858C8788E0F4
:101840008B874E855D856F853B852C858F8198853F
:101850004C9367FD242F00C000C02C9300C000C033
:1018600000C000C000C05C930000252F3A9541F0F5
:10187000661F000000C000C000C000C000C0E8CF6C
:1018800038E0619100C05C9300C0019709F7B09304
:10189000F802A093F7026F873B872C8798878F8386
:1018A00078940E9409076093F3027093F402809386
:1018B000F5029093F6020E94630123CCF7FED0CD8F
:1018C000C7CD80910E0190910F01019761F4E2E084
:1018D000F0E0F0930F01E0930E0161E087E00E94D9
:1018E0006D0461E009C0D0920F01C0920E0161E069
:1018F00087E00E946D0460E086E00E946D0481E054
:1019000080933502FECE8091ED029091EE02009719
:1019100011F00E94CA0E8091EB0287FD03C060E0C7
:101920000C949D040895CF93DF9310924B02109274
:101930004A0288EE93E0A0E0B0E080934C029093DE
:101940004D02A0934E02B0934F028FE191E090932D
:1019500049028093480285EC90E090935502809371
:10196000540284EC90E0909357028093560280ECEE
:1019700090E0909359028093580281EC90E090930C
:101980005B0280935A0282EC90E090935D02809318
:101990005C0286EC90E090935F0280935E0210926E
:1019A000610210926202109263021092640210921D
:1019B000E6021092EC021092F3021092F4021092DE
:1019C000F5021092F60281E08093F2028093EF021A
:1019D0001092F00292E09093F1028093E502CBE640
:1019E000D1E0D093EA02C093E9028BE691E00E9435
:1019F000350E9093EE028093ED02009769F0FC01A2
:101A00009E01119221503040E1F789E790E09093D8
:101A1000E8028093E70208C01092EA021092E902FD
:101A20001092E8021092E70282E08093EB0280912C
:101A3000E602882341F061E082E00E949D0460E0BC
:101A400082E00E946D04E1EBF0E0E491F0E0EE0F43
:101A5000FF1FEB55FF4F859194919093F80280936F
:101A6000F702E3E9F0E0E491E093F902DF91CF912E
:101A700008958F929F92AF92BF92CF92DF92EF9292
:101A8000FF92CF93DF93EC01688179818A819B81FA
:101A9000611571058105910521F464E279ED8BE50D
:101AA00097E02DE133EF41E050E00E94950D4901B0
:101AB0005A019B01AC01A7EAB1E40E94B40D6B018D
:101AC0007C01ACEEB4EFA50194010E94C20DDC01D3
:101AD000CB018C0D9D1DAE1DBF1DB7FF03C001972F
:101AE000A109B04888839983AA83BB83BC01CD0137
:101AF0009F77DF91CF91FF90EF90DF90CF90BF90D5
:101B0000AF909F908F9008950E94390D089581E1C4
:101B100091E00E94390D08956093110170931201B4
:101B200080931301909314010895052E97FB1EF4E2
:101B300000940E94AC0D57FD07D00E94FE0D07FCDB
:101B400003D04EF40C94AC0D5095409530952195F2
:101B50003F4F4F4F5F4F08959095809570956195D9
:101B60007F4F8F4F9F4F08950E94200EA59F900D8D
:101B7000B49F900DA49F800D911D11240895B7FF6F
:101B80000C94B40D0E94B40D821B930B08952F92F8
:101B90003F924F925F926F927F928F929F92AF92FD
:101BA000BF92CF92DF92EF92FF920F931F93CF934A
:101BB000DF93CDB7DEB7CA1BDB0B0FB6F894DEBFE1
:101BC0000FBECDBF09942A88398848885F846E8407
:101BD0007D848C849B84AA84B984C884DF80EE8051
:101BE000FD800C811B81AA81B981CE0FD11D0FB65A
:101BF000F894DEBF0FBECDBFED010895A1E21A2E0D
:101C0000AA1BBB1BFD010DC0AA1FBB1FEE1FFF1FA0
:101C1000A217B307E407F50720F0A21BB30BE40BF0
:101C2000F50B661F771F881F991F1A9469F7609537
:101C30007095809590959B01AC01BD01CF010895F1
:101C4000A29FB001B39FC001A39F700D811D1124FD
:101C5000911DB29F700D811D1124911D0895EE0FED
:101C6000FF1F0590F491E02D0994CF93DF9382300C
:101C7000910510F482E090E0E0911303F0911403D9
:101C800020E030E0C0E0D0E0309711F14081518198
:101C900048175907C0F04817590761F482819381AA
:101CA000209719F09B838A832BC090931403809311
:101CB000130326C02115310519F04217530718F4F4
:101CC0009A01BE01DF01EF010280F381E02DDCCF3C
:101CD0002115310509F1281B390B2430310590F409
:101CE00012968D919C9113976115710521F0FB015E
:101CF0009383828304C09093140380931303FD01A4
:101D0000329644C0FD01E20FF31F8193919322505C
:101D100031092D933C933AC0209111033091120365
:101D2000232B41F4209117013091180130931203B5
:101D300020931103209115013091160121153105D1
:101D400041F42DB73EB74091190150911A01241B5F
:101D5000350BE0911103F0911203E217F307A0F4A1
:101D60002E1B3F0B2817390778F0AC014E5F5F4FF1
:101D70002417350748F04E0F5F1F5093120340930E
:101D800011038193919302C0E0E0F0E0CF01DF9175
:101D9000CF9108950F931F93CF93DF93009709F48A
:101DA0008CC0FC01329713821282009113031091B0
:101DB00014030115110581F420813181820F931FD5
:101DC00020911103309112032817390779F5F09308
:101DD0001203E093110371C0D80140E050E0AE1748
:101DE000BF0750F412962D913C911397AD01211528
:101DF000310509F1D901F3CF9D01DA013383228343
:101E000060817181860F971F8217930769F4EC0137
:101E100028813981260F371F2E5F3F4F3183208362
:101E20008A819B8193838283452B29F4F093140349
:101E3000E093130342C01396FC93EE931297ED01C7
:101E4000499159919E01240F351FE217F30771F450
:101E500080819181840F951F029611969C938E9399
:101E60008281938113969C938E931297E0E0F0E029
:101E7000D80112968D919C911397009719F0F80153
:101E80008C01F6CF8D919C9198012E5F3F4F820F70
:101E9000931F20911103309112032817390769F419
:101EA000309729F4109214031092130302C0138286
:101EB00012821093120300931103DF91CF911F91AF
:101EC0000F910895A0E0B0E0E8E6FFE00C94CB0DA0
:101ED000EC01009721F4CB010E94350EB8C0FC0143
:101EE000E60FF71F9C0122503109E217F30708F4AF
:101EF000ACC0D9010D911C91119706171707B0F0CE
:101F00000530110508F49FC0C8010497861797078C
:101F100008F499C002501109061B170B0193119385
:101F20006D937C93CF010E94CA0E8DC05B01A01AF5
:101F3000B10A4C01800E911EA0911303B0911403BD
:101F400040E050E0E12CF12C109709F44AC0A815AC
:101F5000B905D1F56D907C901197630182E0C80EB0
:101F6000D11CCA14DB0480F1A3014A195B096A0180
:101F700082E0C80ED11C1296BC9012971396AC91B9
:101F8000B5E0CB16D10440F0B282A38351834083E5
:101F9000D9016D937C930AC00E5F1F4FC301800F60
:101FA000911FF90191838083EB2DFA2FE114F10445
:101FB00031F0D7011396FC93EE93129744C0F0933F
:101FC0001403E09313033FC08D919C911197481720
:101FD000590708F4AC017D0112960D90BC91A02D1B
:101FE000B3CF809111039091120388159905E1F404
:101FF00046175707C8F48091150190911601009774
:1020000041F48DB79EB74091190150911A01841B7C
:10201000950BE817F907C8F4F0931203E093110346
:10202000F901718360830FC0CB010E94350E7C01E2
:10203000009759F0A801BE010E943110CE010E9404
:10204000CA0EC70104C0CE0102C080E090E0CDB747
:10205000DEB7EEE00C94E70D81E090E0F8940C948C
:102060004110FB01DC0102C001900D924150504033
:10207000D8F70895FB01DC0101900D920020E1F7F3
:10208000089510E0C3E6D0E004C0FE010E942F0EC8
:0C2090002196C436D107C9F7F894FFCFA1
:10209C0001000100010005006400C80009000100F6
:1020AC00FF0100000000001503800000000000FA92
:1020BC0000830392004101C300A100B50030303011
:0620CC0000302E30000080
:00000001FF
